{"abi":[{"type":"constructor","inputs":[{"name":"_tokenAddress","type":"address","internalType":"address"}],"stateMutability":"nonpayable"},{"type":"function","name":"addVesting","inputs":[{"name":"_beneficiary","type":"address","internalType":"address"},{"name":"_amount","type":"uint256","internalType":"uint256"},{"name":"_startTime","type":"uint256","internalType":"uint256"},{"name":"_endTime","type":"uint256","internalType":"uint256"}],"outputs":[],"stateMutability":"nonpayable"},{"type":"function","name":"claimTokens","inputs":[],"outputs":[],"stateMutability":"nonpayable"},{"type":"function","name":"getVesting","inputs":[{"name":"_beneficiary","type":"address","internalType":"address"}],"outputs":[{"name":"","type":"tuple","internalType":"struct VestingContract.Vesting","components":[{"name":"amount","type":"uint256","internalType":"uint256"},{"name":"startTime","type":"uint256","internalType":"uint256"},{"name":"endTime","type":"uint256","internalType":"uint256"},{"name":"isClaimed","type":"bool","internalType":"bool"}]}],"stateMutability":"view"},{"type":"function","name":"token","inputs":[],"outputs":[{"name":"","type":"address","internalType":"contract IERC20"}],"stateMutability":"view"},{"type":"function","name":"vestings","inputs":[{"name":"","type":"address","internalType":"address"}],"outputs":[{"name":"amount","type":"uint256","internalType":"uint256"},{"name":"startTime","type":"uint256","internalType":"uint256"},{"name":"endTime","type":"uint256","internalType":"uint256"},{"name":"isClaimed","type":"bool","internalType":"bool"}],"stateMutability":"view"},{"type":"event","name":"TokensClaimed","inputs":[{"name":"beneficiary","type":"address","indexed":true,"internalType":"address"},{"name":"amount","type":"uint256","indexed":false,"internalType":"uint256"}],"anonymous":false},{"type":"event","name":"TokensVested","inputs":[{"name":"beneficiary","type":"address","indexed":true,"internalType":"address"},{"name":"amount","type":"uint256","indexed":false,"internalType":"uint256"},{"name":"startTime","type":"uint256","indexed":false,"internalType":"uint256"},{"name":"endTime","type":"uint256","indexed":false,"internalType":"uint256"}],"anonymous":false}],"bytecode":{"object":"0x60a060405234801561000f575f5ffd5b5060405161104938038061104983398181016040528101906100319190610137565b5f73ffffffffffffffffffffffffffffffffffffffff168173ffffffffffffffffffffffffffffffffffffffff160361009f576040517f08c379a0000000000000000000000000000000000000000000000000000000008152600401610096906101bc565b60405180910390fd5b8073ffffffffffffffffffffffffffffffffffffffff1660808173ffffffffffffffffffffffffffffffffffffffff1681525050506101da565b5f5ffd5b5f73ffffffffffffffffffffffffffffffffffffffff82169050919050565b5f610106826100dd565b9050919050565b610116816100fc565b8114610120575f5ffd5b50565b5f815190506101318161010d565b92915050565b5f6020828403121561014c5761014b6100d9565b5b5f61015984828501610123565b91505092915050565b5f82825260208201905092915050565b7f496e76616c696420746f6b656e206164647265737300000000000000000000005f82015250565b5f6101a6601583610162565b91506101b182610172565b602082019050919050565b5f6020820190508181035f8301526101d38161019a565b9050919050565b608051610e496102005f395f818161024a015281816103ad01526106dc0152610e495ff3fe608060405234801561000f575f5ffd5b5060043610610055575f3560e01c806348c54b9d146100595780634cf518a114610063578063cc49ede71461007f578063daf49863146100af578063fc0c546a146100e2575b5f5ffd5b610061610100565b005b61007d600480360381019061007891906107b5565b610326565b005b61009960048036038101906100949190610819565b610616565b6040516100a691906108c0565b60405180910390f35b6100c960048036038101906100c49190610819565b6106a3565b6040516100d994939291906108f7565b60405180910390f35b6100ea6106da565b6040516100f79190610995565b60405180910390f35b5f5f5f3373ffffffffffffffffffffffffffffffffffffffff1673ffffffffffffffffffffffffffffffffffffffff1681526020019081526020015f2090508060020154421015610186576040517f08c379a000000000000000000000000000000000000000000000000000000000815260040161017d90610a08565b60405180910390fd5b806003015f9054906101000a900460ff16156101d7576040517f08c379a00000000000000000000000000000000000000000000000000000000081526004016101ce90610a70565b60405180910390fd5b5f815f015490506001826003015f6101000a81548160ff0219169083151502179055503373ffffffffffffffffffffffffffffffffffffffff167f896e034966eaaf1adc54acc0f257056febbd300c9e47182cf761982cf1f5e430826040516102409190610a8e565b60405180910390a27f000000000000000000000000000000000000000000000000000000000000000073ffffffffffffffffffffffffffffffffffffffff1663a9059cbb33836040518363ffffffff1660e01b81526004016102a3929190610ab6565b6020604051808303815f875af11580156102bf573d5f5f3e3d5ffd5b505050506040513d601f19601f820116820180604052508101906102e39190610b07565b610322576040517f08c379a000000000000000000000000000000000000000000000000000000000815260040161031990610b7c565b60405180910390fd5b5050565b808210610368576040517f08c379a000000000000000000000000000000000000000000000000000000000815260040161035f90610c0a565b60405180910390fd5b5f83116103aa576040517f08c379a00000000000000000000000000000000000000000000000000000000081526004016103a190610c72565b60405180910390fd5b827f000000000000000000000000000000000000000000000000000000000000000073ffffffffffffffffffffffffffffffffffffffff166370a08231306040518263ffffffff1660e01b81526004016104049190610c90565b602060405180830381865afa15801561041f573d5f5f3e3d5ffd5b505050506040513d601f19601f820116820180604052508101906104439190610cbd565b1015610484576040517f08c379a000000000000000000000000000000000000000000000000000000000815260040161047b90610d32565b60405180910390fd5b5f5f5f8673ffffffffffffffffffffffffffffffffffffffff1673ffffffffffffffffffffffffffffffffffffffff1681526020019081526020015f2090505f815f015414806104e15750806003015f9054906101000a900460ff165b610520576040517f08c379a000000000000000000000000000000000000000000000000000000000815260040161051790610dc0565b60405180910390fd5b60405180608001604052808581526020018481526020018381526020015f15158152505f5f8773ffffffffffffffffffffffffffffffffffffffff1673ffffffffffffffffffffffffffffffffffffffff1681526020019081526020015f205f820151815f015560208201518160010155604082015181600201556060820151816003015f6101000a81548160ff0219169083151502179055509050508473ffffffffffffffffffffffffffffffffffffffff167fcf204ce1b55772bfa423f3f0c5d9a2cfe3197a5110073875f0b9c7dd3538c7d685858560405161060793929190610dde565b60405180910390a25050505050565b61061e6106fe565b5f5f8373ffffffffffffffffffffffffffffffffffffffff1673ffffffffffffffffffffffffffffffffffffffff1681526020019081526020015f206040518060800160405290815f82015481526020016001820154815260200160028201548152602001600382015f9054906101000a900460ff1615151515815250509050919050565b5f602052805f5260405f205f91509050805f015490806001015490806002015490806003015f9054906101000a900460ff16905084565b7f000000000000000000000000000000000000000000000000000000000000000081565b60405180608001604052805f81526020015f81526020015f81526020015f151581525090565b5f5ffd5b5f73ffffffffffffffffffffffffffffffffffffffff82169050919050565b5f61075182610728565b9050919050565b61076181610747565b811461076b575f5ffd5b50565b5f8135905061077c81610758565b92915050565b5f819050919050565b61079481610782565b811461079e575f5ffd5b50565b5f813590506107af8161078b565b92915050565b5f5f5f5f608085870312156107cd576107cc610724565b5b5f6107da8782880161076e565b94505060206107eb878288016107a1565b93505060406107fc878288016107a1565b925050606061080d878288016107a1565b91505092959194509250565b5f6020828403121561082e5761082d610724565b5b5f61083b8482850161076e565b91505092915050565b61084d81610782565b82525050565b5f8115159050919050565b61086781610853565b82525050565b608082015f8201516108815f850182610844565b5060208201516108946020850182610844565b5060408201516108a76040850182610844565b5060608201516108ba606085018261085e565b50505050565b5f6080820190506108d35f83018461086d565b92915050565b6108e281610782565b82525050565b6108f181610853565b82525050565b5f60808201905061090a5f8301876108d9565b61091760208301866108d9565b61092460408301856108d9565b61093160608301846108e8565b95945050505050565b5f819050919050565b5f61095d61095861095384610728565b61093a565b610728565b9050919050565b5f61096e82610943565b9050919050565b5f61097f82610964565b9050919050565b61098f81610975565b82525050565b5f6020820190506109a85f830184610986565b92915050565b5f82825260208201905092915050565b7f56657374696e6720706572696f64206e6f742079657420636f6d706c657465645f82015250565b5f6109f26020836109ae565b91506109fd826109be565b602082019050919050565b5f6020820190508181035f830152610a1f816109e6565b9050919050565b7f546f6b656e7320616c726561647920636c61696d6564000000000000000000005f82015250565b5f610a5a6016836109ae565b9150610a6582610a26565b602082019050919050565b5f6020820190508181035f830152610a8781610a4e565b9050919050565b5f602082019050610aa15f8301846108d9565b92915050565b610ab081610747565b82525050565b5f604082019050610ac95f830185610aa7565b610ad660208301846108d9565b9392505050565b610ae681610853565b8114610af0575f5ffd5b50565b5f81519050610b0181610add565b92915050565b5f60208284031215610b1c57610b1b610724565b5b5f610b2984828501610af3565b91505092915050565b7f546f6b656e207472616e73666572206661696c656400000000000000000000005f82015250565b5f610b666015836109ae565b9150610b7182610b32565b602082019050919050565b5f6020820190508181035f830152610b9381610b5a565b9050919050565b7f53746172742074696d65206d757374206265206265666f726520656e642074695f8201527f6d65000000000000000000000000000000000000000000000000000000000000602082015250565b5f610bf46022836109ae565b9150610bff82610b9a565b604082019050919050565b5f6020820190508181035f830152610c2181610be8565b9050919050565b7f416d6f756e74206d7573742062652067726561746572207468616e207a65726f5f82015250565b5f610c5c6020836109ae565b9150610c6782610c28565b602082019050919050565b5f6020820190508181035f830152610c8981610c50565b9050919050565b5f602082019050610ca35f830184610aa7565b92915050565b5f81519050610cb78161078b565b92915050565b5f60208284031215610cd257610cd1610724565b5b5f610cdf84828501610ca9565b91505092915050565b7f496e73756666696369656e7420746f6b656e7320696e20636f6e7472616374005f82015250565b5f610d1c601f836109ae565b9150610d2782610ce8565b602082019050919050565b5f6020820190508181035f830152610d4981610d10565b9050919050565b7f4163746976652076657374696e6720616c72656164792065786973747320666f5f8201527f7220746869732062656e65666963696172790000000000000000000000000000602082015250565b5f610daa6032836109ae565b9150610db582610d50565b604082019050919050565b5f6020820190508181035f830152610dd781610d9e565b9050919050565b5f606082019050610df15f8301866108d9565b610dfe60208301856108d9565b610e0b60408301846108d9565b94935050505056fea2646970667358221220b5e8f3500faac8c89bfa2ea4a7bf7a1d14ebde560cb90d6aa0e1537a2e99db1264736f6c634300081c0033","linkReferences":{}},"methodIdentifiers":{"addVesting(address,uint256,uint256,uint256)":"4cf518a1","claimTokens()":"48c54b9d","getVesting(address)":"cc49ede7","token()":"fc0c546a","vestings(address)":"daf49863"},"id":19}